:020000040800F2
:10440000400A002001450008E94A00086549000803
:10441000C5490008114600082758000800000000A0
:104420000000000000000000000000008F530008A2
:104430004946000800000000EB5100086D550008D7
:104440001B4500081B4500081B4500081B450008CC
:104450001B4500081B4500081B4500081B450008BC
:104460001B4500081B4500081B4500081B450008AC
:104470001B4500081B4500081B4500081B4500089C
:104480001B4500081B4500081B4500081B4500088C
:104490001B4500081B4500081B4500081B4500087C
:1044A0001B4500081B4500081B4500081B4500086C
:1044B0001B4500081B4500081B4500081B4500085C
:1044C0001B4500081B4500081B4500081B4500084C
:1044D0001B450008D1550008F95500081B45000888
:1044E000914600081B4500081B450008DFF80CD06A
:1044F00000F03CF800480047995A0008400A0020A4
:104500000648804706480047FEE7FEE7FEE7FEE76D
:10451000FEE7FEE7FEE7FEE7FEE7FEE7715500086F
:10452000ED44000840EA01039B0703D009E008C9F5
:10453000121F08C0042AFAD203E011F8013B00F868
:10454000013B521EF9D27047D2B201E000F8012BB4
:10455000491EFBD270470022F6E710B513460A4603
:1045600004461946FFF7F0FF204610BD064C074DE4
:1045700006E0E06840F0010394E807009847103433
:10458000AC42F6D3FFF7B6FFD85B0008F85B000833
:1045900010B513A000F0CDFC00F07AFC002405E07B
:1045A00004F5002001F00DFA04F58054B4F5384FFD
:1045B000F6D300240EE014482118C2141348FFF764
:1045C000B1FF04F500204FF48072104901F092F918
:1045D00004F58074B4F5384FEDD3012010BD000010
:1045E0005B4150505D204261636B75702063757252
:1045F00072656E742041505020746F2057323551CF
:1046000036342E2E2E00000000440008400000200A
:1046100000BFFEE730B50B4600210FE05D5C68404F
:10462000002408E000F001051DB1064D85EA5000A8
:1046300000E04008641C082CF4D3491C9142EDD3DF
:1046400030BD00002083B8ED704700B5034603E09D
:104650004FF47A7000F005F81800A3F10103F7D1C8
:1046600000BD00EBC001C9004FF0E0225161002104
:1046700091610521116100BF4FF0E021096901F44A
:1046800080310029F8D004214FF0E02211617047F9
:1046900010B54FF4804000F01FF8012810D18103BD
:1046A000084800F04DF938B907480088401C064911
:1046B00008801E20FFF7C9FF4FF4804000F006F885
:1046C00010BD0000000C01402C00002001490860D2
:1046D0007047000014040140014600200022074BEF
:1046E0001B6803EA0102054B14331B680B4013B12E
:1046F0000AB1012000E000207047000000040140E2
:1047000070B50546002404E0204601F05AF904F58E
:104710008054AC42F8D370BD30B5044604254FF444
:10472000302000F06FF80546042D17D10C480069C1
:1047300040F002000A49086108464461006940F0FF
:10474000400008614FF4302000F05CF80546044852
:10475000006941F6FD71084001490861284630BDF5
:104760000020024004200B49C96801F0010109B191
:1047700001200EE00749C96801F0040109B10220D7
:1047800007E00449C96801F0100109B1032000E005
:1047900004207047002002400348006940F0800078
:1047A00001490861704700000020024070B50446CE
:1047B0000D460426F00200F025F80646042E11D11D
:1047C0000948006940F00100074908612580F002AE
:1047D00000F018F806460448006941F6FE710840EA
:1047E00001490861304670BD00200240024803497B
:1047F0004860034848607047230167450020024035
:10480000AB89EFCD00B502460423FFF7ABFF0346AB
:1048100003E0FFF7A7FF0346521E012B01D1002A38
:10482000F7D102B90523184600BD2DE9F041024633
:1048300000250026002000230024002791F803C053
:104840000CF00F0591F803C00CF0100CBCF1000F38
:1048500003D091F802C04CEA050591F800C0BCF104
:10486000000F31D0146800202BE04FF0010C0CFA3F
:1048700000F3B1F800C00CEA03069E4220D1830089
:104880004FF00F0C0CFA03F7BC4305FA03FC4CEA9B
:10489000040491F803C0BCF1280F06D14FF0010CBD
:1048A0000CFA00FCC2F814C00AE091F803C0BCF195
:1048B000480F05D14FF0010C0CFA00FCC2F810C0F3
:1048C000401C0828D1D31460B1F800C0BCF1FF0F20
:1048D00034DD546800202EE000F1080C4FF0010890
:1048E00008FA0CF3B1F800C00CEA03069E4221D18D
:1048F00083004FF00F0C0CFA03F7BC4305FA03FCDE
:104900004CEA040491F803C0BCF1280F05D100F172
:10491000080C08FA0CF8C2F8148091F803C0BCF136
:10492000480F07D100F1080C4FF0010808FA0CF805
:10493000C2F81080401C0828CED35460BDE8F08136
:104940000246002093680B400BB1012000E00020DC
:10495000704741617047016170470AB1016100E031
:104960004161704700BFFEE710B54FF48071024807
:10497000FFF7F1FF10BD00000008014010B54FF433
:1049800080710248FFF7E5FF10BD000000080140FC
:1049900008B50121042000F039FC10208DF8030037
:1049A0000001ADF8000003208DF8020069460448BC
:1049B000FFF73BFF4FF480710148FFF7CCFF08BDC4
:1049C0000008014000BFFEE700B587B001210820C4
:1049D00000F01CFC0121880300F008FC10208DF879
:1049E0001B000002ADF8180003208DF81A0006A97C
:1049F0002248FFF71AFF18208DF81B004FF42040C3
:104A0000ADF8180006A91D48FFF70FFF48208DF8E4
:104A10001B004FF48040ADF8180006A91748FFF7B7
:104A200004FF4FF48270ADF806000020ADF80400DA
:104A3000ADF80800ADF812003020ADF810000020ED
:104A4000ADF80A00ADF80C004FF40070ADF80E00A0
:104A50000720ADF8140001A9094800F06BFC4FF4E1
:104A60008071074800F084FC0121054800F048FCF3
:104A7000012000F02DF807B000BD0000000C01403F
:104A80000038004010B5002000F022F810BD10B52D
:104A9000012000F01DF810BD10B5044600BF022132
:104AA0000A4800F039FC0128F9D12146074800F0F6
:104AB0003FFC00BF0121054800F02EFC0128F9D180
:104AC000024800F032FCC0B210BD000000380040C7
:104AD00010B5044622464FF480510248FFF73DFFCF
:104AE00010BD0000000C01407047000070B50021AF
:104AF00000230F22C47804B3154C246804F4E06446
:104B0000C4F5E064210AC1F10403CA40447804FA00
:104B100003F184781440214309010E4C0678A15515
:104B2000047804F01F050124AC4005786D11AD0038
:104B300005F1E025C5F8004109E0047804F01F05FF
:104B40000124AC40044D0678761145F8264070BD2E
:104B50000CED00E000E400E080E100E002490143E8
:104B6000024A1160704700000000FA050CED00E0F9
:104B70000020054908700549086005490860054995
:104B80000860054908607047180000201C000020DC
:104B9000200000202400002028000020F0B58BB069
:104BA00008A800F031FA08B90BB0F0BD8A480078C7
:104BB00010B101286AD16AE09DF82000012800D0D8
:104BC000F2E7BDF824000C2804DA0021032000F0ED
:104BD000F9FAE9E70A98007800060A99497840EA64
:104BE00001400A99897840EA01200A99C97840EA87
:104BF00001040A98007900060A99497940EA0140BF
:104C00000A99897940EA01200A99C97940EA01079D
:104C10000A98407A0A99097A40EA01250A98C07AE6
:104C20000A99897A40EA012614B1B4F5384F04D9BB
:104C30000021032000F0C6FAB6E76848046068481F
:104C4000076046EA05406749086000206649086039
:104C50002046FFF755FD01205F49087063A000F072
:104C600068F9204600F040F966A000F062F9284695
:104C700000F03AF965A000F05CF9304600F034F934
:104C800000F006F90021022000F09CFAA0E09DF857
:104C9000200002283ED1BDF822005349096888420D
:104CA00021D1BDF82400B0F5807F06DD4E48008894
:104CB00081B2152000F086FA76E7BDF82420BDF811
:104CC00022304FF0000C0CEB03200A9900F012FE8A
:104CD00045480068401C44490860BDF82210062081
:104CE00000F070FA73E04048006860B1BDF822102F
:104CF0003D480068401E814205D1BDF822100620C3
:104D000000F060FA63E03848008881B2152000F0B6
:104D100059FA5CE09DF8200003284CD100F086FD94
:104D2000002840D0FFF734FCA0B31C2101A8FFF7F6
:104D300012FC3748019037480290284800680390D9
:104D40002748006804902748006805904FF43840D1
:104D500006904FF00210079001A800F07DF80021A6
:104D6000042000F02FFA2CA000F0E3F800F090F8F7
:104D70000520FFF76AFC00BF3148006800F4E060DE
:104D800030490843001D2E490860BFF3408F00BF23
:104D900000BFFEE7FFE70021052000F013FA002026
:104DA0000D49087013E00021052000F00BFA0020E7
:104DB000094908700BE09DF82000042807D122A0C3
:104DC00000F0B7F800F064F800200349087000BF55
:104DD00000BF00BFE8E6000018000020200000200F
:104DE00024000020280000201C0000205B415050BF
:104DF0005D204F54412053544152543A2073697AF4
:104E0000653D0000207665723D0000002E00000028
:104E10004141544FAA55AA555B4150505D204F5413
:104E20004120646F6E652C20726573657420746F09
:104E300020626F6F746C6F616465722E2E2E00009D
:104E40000CED00E00000FA055B4150505D204F542E
:104E5000412061626F7274002DE9F04105462E46D3
:104E60000E27FFF7C3FC0948FFF756FC002407E0B4
:104E700036F81410054A02EB4400FFF797FC641C57
:104E8000BC42F5D3FFF788FCBDE8F08100FC0008C8
:104E900010B50D2000F0D8FA0A2000F0D5FA10BDA8
:104EA00010B50446201200F00DF8E0B200F00AF848
:104EB00010BD10B50446200CFFF7F2FFA0B2FFF7BB
:104EC000EFFF10BD10B50446064901EB1411087838
:104ED00000F0BAFA04F00F01024A505C00F0B4FA94
:104EE00010BD0000C45B00083EB5044600251CB997
:104EF000302000F0A9FA3EBD0DE00A20B4FBF0F12D
:104F000000FB1140303029466A1CD5B20DF8010073
:104F10000A20B4FBF0F4002CEFD106E0691EC9B200
:104F20000D461DF8010000F08FFA002DF6D100BFEC
:104F3000E1E710B50446204600F096FA10BD0000E7
:104F400000B587B00121042000F060F90121480478
:104F500000F04CF918208DF81B000420ADF8180063
:104F600003208DF81A0006A92248FFF75EFC4820AE
:104F70008DF81B000820ADF8180006A91D48FFF7A2
:104F800054FC4FF4E13002900020ADF814000C20E6
:104F9000ADF812000020ADF81000ADF80E00ADF82D
:104FA0000C0002A9144800F0C9FB012240F225516F
:104FB000114800F09DFB4FF4A060FFF7CFFD2620C5
:104FC0008DF8040001208DF807008DF805008DF89C
:104FD000060001A8FFF78AFD0121074800F045FB04
:104FE000002006490880064908800649087007B075
:104FF00000BD000000080140004400402E000020D9
:10500000300000203200002038B50446C1E0654879
:1050100000780A2871D2DFE800F0050D1D29364519
:1050200052758D969DF80000AA2802D101205D4995
:105030000870ADE09DF80000552807D102205949BD
:1050400008704FF6FF705849088002E0002055496B
:1050500008709DE09DF80000544908709DF800001C
:1050600000F0F8FC03204F49087091E09DF8000023
:1050700000024F4908809DF8000000F0EBFC04207E
:105080004849087084E04A4800889DF800100843A9
:10509000474908809DF8000000F0DCFC05204149EC
:1050A000087075E09DF800000002424908809DF8F4
:1050B000000000F0CFFC06203A49087068E03D4847
:1050C00000889DF8001008433A4908809DF80000C8
:1050D00000F0C0FC00203849088036480088B0F550
:1050E000807F03DD00202F4908700AE031480088E6
:1050F00020B908202B49087003E045E00720294922
:10510000087045E09DF800102B4802880088401C7C
:10511000294B1880294881549DF8000000F09AFC22
:105120002548008823490988884202DB08201D4958
:1051300008702DE09DF80000000221490880092038
:105140001849087024E01E4800889DF800100843A4
:105150001B490880084600881349098888420FD1F6
:10516000124800782070124800886080114800883A
:10517000A0801248A06000200A490870012038BDB4
:1051800000200849087003E000200649087000BFAD
:1051900000BF684600F0E8FC00287FF438AF00BF8D
:1051A000EDE70000320000203A000020330000202C
:1051B0003400002036000020380000204005002088
:1051C0003C00002070B505460C46AA2000F0EAFC21
:1051D000552000F0E7FC284600F0E4FC201200F027
:1051E000E1FCE0B200F0DEFC70BD704729B1064A78
:1051F000D2690243044BDA6104E0034AD269824374
:10520000014BDA61704700000010024029B1064AE4
:1052100092690243044B9A6104E0034A9269824313
:10522000014B9A61704700000010024030B5002128
:105230000022002400232D4D6D6805F00C0121B1E2
:10524000042905D0082923D105E0294D056022E075
:10525000274D05601FE0254D6D6805F47012234D44
:105260006D6805F48034022505EB92421CB9214D8E
:10527000554305600BE01D4D6D6805F400351DB10B
:105280001C4D5543056002E0194D5543056002E091
:10529000174D056000BF00BF144D6D6805F0F001AB
:1052A0000909154D6B5C0568DD4045600F4D6D6863
:1052B00005F4E061090A104D6B5C4568DD408560CE
:1052C0000A4D6D6805F46051C90A0B4D6B5C456869
:1052D000DD40C560054D6D6805F44041890B074D03
:1052E0006B5CC568B5FBF3F5056130BD001002408D
:1052F00000127A0000093D0000000020100000208C
:1053000021B1028842F04002028004E002884FF698
:10531000BF731A40028070470246002013890B4079
:105320000BB1012000E000207047014688897047DA
:105330008181704710B50022028802F441520B8827
:105340004C8823438C882343CC8823430C892343F4
:105350004C8923438C892343CC8923431A430280FD
:10536000838B4FF2FF74234083830B8A038210BD2B
:105370004FF6FF62914204D0028842F480720280AC
:1053800004E002884FF6FF631A40028070477047BE
:1053900000B587B001210420FFF738FF0121880301
:1053A000FFF734FF48208DF81B004FF48060ADF804
:1053B000180003208DF81A0006A92148FFF735FAD6
:1053C00018208DF81B004FF40070ADF81800032072
:1053D0008DF81A0006A91A48FFF727FA4FF4E130B2
:1053E00002900020ADF814000C20ADF8120000204F
:1053F000ADF81000ADF80E00ADF80C0002A9114890
:1054000000F09CF9012240F225510E4800F070F99D
:105410004FF4A060FFF7A2FB25208DF804000120C7
:105420008DF807008DF805008DF8060001A8FFF73C
:105430005DFB0121034800F018F907B000BD000032
:10544000000801400038014010B5044621460548D7
:1054500000F0E5F900BF8021024800F012F90028B1
:10546000F9D010BD0038014070B50446002504E0B5
:10547000605DFFF7E9FF681CC5B2605D0028F7D1E9
:1054800070BD10B500F002F810BD00000CB5002092
:10549000019000903348006840F480303149086042
:1054A00000BF3048006800F4003000900198401CB4
:1054B0000190009818B90198B0F5A06FF1D1294872
:1054C000006800F4003010B10120009001E00020DD
:1054D00000900098012843D12348006840F0100054
:1054E000214908600846006820F00300086008466B
:1054F000006840F0020008601A4840681949486096
:105500000846406848600846406840F4806048604B
:105510000846406820F47C1048600846406840F423
:10552000E81048600846006840F08070086000BFDE
:105530000C48006800F000700028F9D00948406865
:1055400020F00300074948600846406840F0020028
:10555000486000BF0348406800F00C000828F9D1FB
:105560000CBD000000100240002002407047000007
:1055700010B51348006840F0010011490860084662
:105580004068104908400E494860084600680E49C6
:1055900008400B4908600846006820F48020086035
:1055A0000846406820F4FE0048604FF41F00886001
:1055B000FFF767FF4FF000600449086010BD00006E
:1055C000001002400000FFF8FFFFF6FE08ED00E0CB
:1055D00010B540F22551074800F060F8012807D1C6
:1055E000044800F017F940F22551024800F02EF867
:1055F00010BD00000038014070B540F225510F4841
:1056000000F04CF8012818D10C4800F003F9C5B29D
:105610000B480088401CC0F309040A4800888442F3
:1056200005D009480649098845540548048040F2D8
:105630002551024800F00AF800BF70BD0044004048
:105640002E000020300000204001002010B5002274
:10565000002340F66A14A14200D100BF0A120124BF
:105660009440A3B2DC43048010BD21B1828942F48E
:105670000052828104E082894DF6FF731A408281D4
:10568000704702460020B1F5007F00D100BF1388AB
:105690000B400BB1012000E00020704770B50246BE
:1056A000002400230025002040F66A16B14200D1F4
:1056B00000BFC1F3421501F01F03012606FA03F3F0
:1056C000012D02D19689334006E0022D02D1168ABF
:1056D000334001E0968A33400C12012606FA04F4A6
:1056E0001688344013B10CB1012000E0002070BDD9
:1056F000F0B50346002400260025002040F66A1776
:10570000B94200D100BF1846C1F3421401F01F0690
:10571000012707FA06F5012C01D10C3004E0022C18
:1057200001D1103000E014301AB107682F43076030
:1057300002E00768AF430760F0BD00002DE9F047C5
:1057400086B005460E460024A24600BFA1460027AB
:10575000B08900B100BF2F462C8A4CF6FF70044080
:10576000F08804432C82AC894EF6F3100440B088D4
:1057700031890843718908430443AC81AC8A4FF6F0
:10578000FF400440B0890443AC8201A8FFF74EFDFE
:105790001F48874202D1DDF810A001E0DDF80CA01F
:1057A000A88900F4004040B10AEBCA0000EB0A10DF
:1057B00031684900B0FBF1F807E00AEBCA0000EBE2
:1057C0000A1031688900B0FBF1F86420B8FBF0F0F2
:1057D00004012009642101FB1089A88900F400401C
:1057E00040B1322000EBC900B0FBF1F000F007003F
:1057F000044308E0322000EB09106421B0FBF1F013
:1058000000F00F0004432C8106B0BDE8F0870000D3
:105810000038014001468888C0F308007047C1F392
:1058200008028280704700BFFEE7000070B54FF0AD
:10583000FF351EA0FFF77DFBFFF72AFB002419E0D0
:1058400020480068001BB0F5807F02D94FF48070BB
:1058500002E01C480068001B0646204632461A49F2
:1058600000F06EF8324618492846FEF7D3FE05468A
:1058700004F58074134800688442E1D3ED4313A01B
:10588000FFF757FB2846FFF714FB14A0FFF751FB67
:1058900015480068FFF70DFBFFF7FAFA1248006899
:1058A000854201D1012070BD0020FCE75B415050D2
:1058B0005D205665726966792043524333322E2E3D
:1058C0002E00000020000020400000205B415050CE
:1058D0005D2043616C633D307800000020457870A6
:1058E0006563743D307800002400002010B5FFF798
:1058F0006BF810BD2DE9F04104460E46174600F046
:1059000091F8FFF7BFF80220FFF7C6F8C4F307408D
:10591000FFF7C2F8C4F30720FFF7BEF8E0B2FFF7C5
:10592000BBF8002504E0705DFFF7B6F8681C85B28F
:10593000BD42F8DBFFF7ABF800F05CF8BDE8F081A2
:105940002DE9F04104460E461746FFF79BF8032069
:10595000FFF7A2F8C4F30740FFF79EF8C4F307204F
:10596000FFF79AF8E0B2FFF797F8002504E0FF2070
:10597000FFF792F870556D1CBD42F8D3FFF787F81A
:10598000BDE8F08170B505460C46FFF77BF89F2017
:10599000FFF782F8FF20FFF77FF82870FF20FFF75E
:1059A0007BF8208020884FF6FF7101EA00202080DC
:1059B000FF20FFF771F8218808432080FFF767F880
:1059C00070BD10B5044600F02DF8FFF75BF82020FD
:1059D000FFF762F8C4F30740FFF75EF8C4F307204F
:1059E000FFF75AF8E0B2FFF757F8FFF750F800F06A
:1059F00001F810BD10B5FFF745F80520FFF74CF88A
:105A0000074C02E0641E04B906E0FF20FFF744F8EB
:105A100000F001000028F5D100BFFFF738F810BDF5
:105A2000A086010010B5FFF72DF80620FFF734F827
:105A3000FFF72DF810BD02E008C8121F08C1002AA8
:105A4000FAD170477047002001E001C1121F002AFF
:105A5000FBD170470F4A128842400E4B1A8000213A
:105A600014E00C4A127802F0010242B1094A12888D
:105A70004AF2010383EA6202064B1A8004E0054AF7
:105A800012885210034B1A804A1CD1B20829E8DB55
:105A9000704700003A0000201CB5224822490860E7
:105AA000FEF776FFFFF774FCFFF74AFAFFF71EFFD9
:105AB000FFF75EF81DA0FFF73CFA0220FFF714FA8B
:105AC0001FA0FFF736FA0220FFF70EFA1DA0FFF71E
:105AD00030FAFFF7DDF9694601A8FFF753FF1CA074
:105AE000FFF727FA9DF80400FFF7ECF9BDF8000076
:105AF000FFF7D6F9FFF7CCF913E0FFF74FF8194895
:105B0000007828B1FEF730FF00201649087004E045
:105B1000FEF734FF0120134908704FF4FA60FEF7D6
:105B200094FDEAE70044000808ED00E05B415050B6
:105B30005D204170706C69636174696F6E207600DE
:105B40002E00000020737461727465640000000010
:105B50005B4150505D205732355136342049443A2C
:105B6000203078001400002001460B4800880B4AC2
:105B70001288904201D1002070470948074A1288D4
:105B8000805C087005480088401CC0F30900034A87
:105B900010800120F0E700002E00002030000020DF
:105BA0004001002010B5044621460548FFF737FEA6
:105BB00000BF80210248FFF764FD0028F9D010BD26
:105BC00000440040303132333435363738394142C1
:105BD0004344454600000000F85B00080000002038
:105BE00040000000365A0008385C000840000020E1
:105BF000000A0000465A00080000000001020304E9
:105C00000102030406070809020406080000000058
:105C10000000000000000000000000000000000084
:105C20000000000000000000000000000000000074
:085C300000000000000000006C
:04000005080044EDBE
:00000001FF
